{
  "contractName": "HashStorage",
  "abi": [
    {
      "anonymous": false,
      "inputs": [
        {
          "indexed": true,
          "internalType": "bytes32",
          "name": "hash",
          "type": "bytes32"
        },
        {
          "indexed": false,
          "internalType": "string",
          "name": "fileName",
          "type": "string"
        },
        {
          "indexed": false,
          "internalType": "string",
          "name": "fileType",
          "type": "string"
        },
        {
          "indexed": false,
          "internalType": "string",
          "name": "fileSize",
          "type": "string"
        },
        {
          "indexed": false,
          "internalType": "uint256",
          "name": "timestamp",
          "type": "uint256"
        }
      ],
      "name": "HashStored",
      "type": "event"
    },
    {
      "inputs": [
        {
          "internalType": "uint256",
          "name": "",
          "type": "uint256"
        }
      ],
      "name": "allHashes",
      "outputs": [
        {
          "internalType": "bytes32",
          "name": "",
          "type": "bytes32"
        }
      ],
      "stateMutability": "view",
      "type": "function"
    },
    {
      "inputs": [
        {
          "internalType": "bytes32",
          "name": "",
          "type": "bytes32"
        }
      ],
      "name": "hashRecords",
      "outputs": [
        {
          "internalType": "bytes32",
          "name": "hash",
          "type": "bytes32"
        },
        {
          "internalType": "string",
          "name": "fileName",
          "type": "string"
        },
        {
          "internalType": "string",
          "name": "fileType",
          "type": "string"
        },
        {
          "internalType": "string",
          "name": "fileSize",
          "type": "string"
        },
        {
          "internalType": "uint256",
          "name": "timestamp",
          "type": "uint256"
        },
        {
          "internalType": "bool",
          "name": "exists",
          "type": "bool"
        }
      ],
      "stateMutability": "view",
      "type": "function"
    },
    {
      "inputs": [
        {
          "internalType": "bytes32",
          "name": "_hash",
          "type": "bytes32"
        },
        {
          "internalType": "string",
          "name": "_fileName",
          "type": "string"
        },
        {
          "internalType": "string",
          "name": "_fileType",
          "type": "string"
        },
        {
          "internalType": "string",
          "name": "_fileSize",
          "type": "string"
        }
      ],
      "name": "storeHash",
      "outputs": [],
      "stateMutability": "nonpayable",
      "type": "function"
    },
    {
      "inputs": [
        {
          "internalType": "bytes32",
          "name": "_hash",
          "type": "bytes32"
        }
      ],
      "name": "getHashData",
      "outputs": [
        {
          "internalType": "bytes32",
          "name": "",
          "type": "bytes32"
        },
        {
          "internalType": "string",
          "name": "",
          "type": "string"
        },
        {
          "internalType": "string",
          "name": "",
          "type": "string"
        },
        {
          "internalType": "string",
          "name": "",
          "type": "string"
        },
        {
          "internalType": "uint256",
          "name": "",
          "type": "uint256"
        }
      ],
      "stateMutability": "view",
      "type": "function"
    },
    {
      "inputs": [],
      "name": "getAllHashes",
      "outputs": [
        {
          "internalType": "bytes32[]",
          "name": "",
          "type": "bytes32[]"
        }
      ],
      "stateMutability": "view",
      "type": "function"
    },
    {
      "inputs": [
        {
          "internalType": "bytes32",
          "name": "_hash",
          "type": "bytes32"
        }
      ],
      "name": "hashExists",
      "outputs": [
        {
          "internalType": "bool",
          "name": "",
          "type": "bool"
        }
      ],
      "stateMutability": "view",
      "type": "function"
    }
  ],
  "bytecode": "0x608060405234801561000f575f80fd5b506111648061001d5f395ff3fe608060405234801561000f575f80fd5b5060043610610060575f3560e01c8063313ef09614610064578063412f12cd1461009457806352dc2185146100c8578063b535b5c3146100fd578063d3b967681461012d578063fe99f74214610149575b5f80fd5b61007e6004803603810190610079919061082b565b610167565b60405161008b919061086e565b60405180910390f35b6100ae60048036038101906100a991906108b1565b610187565b6040516100bf959493929190610975565b60405180910390f35b6100e260048036038101906100dd91906108b1565b610414565b6040516100f4969594939291906109f5565b60405180910390f35b610117600480360381019061011291906108b1565b6105e9565b6040516101249190610a69565b60405180910390f35b61014760048036038101906101429190610bae565b610611565b005b610151610791565b60405161015e9190610d1d565b60405180910390f35b60018181548110610176575f80fd5b905f5260205f20015f915090505481565b5f60608060605f805f8781526020019081526020015f206005015f9054906101000a900460ff166101ed576040517f08c379a00000000000000000000000000000000000000000000000000000000081526004016101e490610d87565b60405180910390fd5b5f805f8881526020019081526020015f206040518060c00160405290815f820154815260200160018201805461022290610dd2565b80601f016020809104026020016040519081016040528092919081815260200182805461024e90610dd2565b80156102995780601f1061027057610100808354040283529160200191610299565b820191905f5260205f20905b81548152906001019060200180831161027c57829003601f168201915b505050505081526020016002820180546102b290610dd2565b80601f01602080910402602001604051908101604052809291908181526020018280546102de90610dd2565b80156103295780601f1061030057610100808354040283529160200191610329565b820191905f5260205f20905b81548152906001019060200180831161030c57829003601f168201915b5050505050815260200160038201805461034290610dd2565b80601f016020809104026020016040519081016040528092919081815260200182805461036e90610dd2565b80156103b95780601f10610390576101008083540402835291602001916103b9565b820191905f5260205f20905b81548152906001019060200180831161039c57829003601f168201915b5050505050815260200160048201548152602001600582015f9054906101000a900460ff1615151515815250509050805f01518160200151826040015183606001518460800151955095509550955095505091939590929450565b5f602052805f5260405f205f91509050805f01549080600101805461043890610dd2565b80601f016020809104026020016040519081016040528092919081815260200182805461046490610dd2565b80156104af5780601f10610486576101008083540402835291602001916104af565b820191905f5260205f20905b81548152906001019060200180831161049257829003601f168201915b5050505050908060020180546104c490610dd2565b80601f01602080910402602001604051908101604052809291908181526020018280546104f090610dd2565b801561053b5780601f106105125761010080835404028352916020019161053b565b820191905f5260205f20905b81548152906001019060200180831161051e57829003601f168201915b50505050509080600301805461055090610dd2565b80601f016020809104026020016040519081016040528092919081815260200182805461057c90610dd2565b80156105c75780601f1061059e576101008083540402835291602001916105c7565b820191905f5260205f20905b8154815290600101906020018083116105aa57829003601f168201915b505050505090806004015490806005015f9054906101000a900460ff16905086565b5f805f8381526020019081526020015f206005015f9054906101000a900460ff169050919050565b5f808581526020019081526020015f206005015f9054906101000a900460ff1615610671576040517f08c379a000000000000000000000000000000000000000000000000000000000815260040161066890610e4c565b60405180910390fd5b6040518060c00160405280858152602001848152602001838152602001828152602001428152602001600115158152505f808681526020019081526020015f205f820151815f015560208201518160010190816106ce9190611007565b5060408201518160020190816106e49190611007565b5060608201518160030190816106fa9190611007565b506080820151816004015560a0820151816005015f6101000a81548160ff021916908315150217905550905050600184908060018154018082558091505060019003905f5260205f20015f9091909190915055837fd905d163818cadb61e95e77d7b38bca94756155b97e4938898987ad1abcb26768484844260405161078394939291906110d6565b60405180910390a250505050565b606060018054806020026020016040519081016040528092919081815260200182805480156107dd57602002820191905f5260205f20905b8154815260200190600101908083116107c9575b5050505050905090565b5f604051905090565b5f80fd5b5f80fd5b5f819050919050565b61080a816107f8565b8114610814575f80fd5b50565b5f8135905061082581610801565b92915050565b5f602082840312156108405761083f6107f0565b5b5f61084d84828501610817565b91505092915050565b5f819050919050565b61086881610856565b82525050565b5f6020820190506108815f83018461085f565b92915050565b61089081610856565b811461089a575f80fd5b50565b5f813590506108ab81610887565b92915050565b5f602082840312156108c6576108c56107f0565b5b5f6108d38482850161089d565b91505092915050565b5f81519050919050565b5f82825260208201905092915050565b5f5b838110156109135780820151818401526020810190506108f8565b5f8484015250505050565b5f601f19601f8301169050919050565b5f610938826108dc565b61094281856108e6565b93506109528185602086016108f6565b61095b8161091e565b840191505092915050565b61096f816107f8565b82525050565b5f60a0820190506109885f83018861085f565b818103602083015261099a818761092e565b905081810360408301526109ae818661092e565b905081810360608301526109c2818561092e565b90506109d16080830184610966565b9695505050505050565b5f8115159050919050565b6109ef816109db565b82525050565b5f60c082019050610a085f83018961085f565b8181036020830152610a1a818861092e565b90508181036040830152610a2e818761092e565b90508181036060830152610a42818661092e565b9050610a516080830185610966565b610a5e60a08301846109e6565b979650505050505050565b5f602082019050610a7c5f8301846109e6565b92915050565b5f80fd5b5f80fd5b7f4e487b71000000000000000000000000000000000000000000000000000000005f52604160045260245ffd5b610ac08261091e565b810181811067ffffffffffffffff82111715610adf57610ade610a8a565b5b80604052505050565b5f610af16107e7565b9050610afd8282610ab7565b919050565b5f67ffffffffffffffff821115610b1c57610b1b610a8a565b5b610b258261091e565b9050602081019050919050565b828183375f83830152505050565b5f610b52610b4d84610b02565b610ae8565b905082815260208101848484011115610b6e57610b6d610a86565b5b610b79848285610b32565b509392505050565b5f82601f830112610b9557610b94610a82565b5b8135610ba5848260208601610b40565b91505092915050565b5f805f8060808587031215610bc657610bc56107f0565b5b5f610bd38782880161089d565b945050602085013567ffffffffffffffff811115610bf457610bf36107f4565b5b610c0087828801610b81565b935050604085013567ffffffffffffffff811115610c2157610c206107f4565b5b610c2d87828801610b81565b925050606085013567ffffffffffffffff811115610c4e57610c4d6107f4565b5b610c5a87828801610b81565b91505092959194509250565b5f81519050919050565b5f82825260208201905092915050565b5f819050602082019050919050565b610c9881610856565b82525050565b5f610ca98383610c8f565b60208301905092915050565b5f602082019050919050565b5f610ccb82610c66565b610cd58185610c70565b9350610ce083610c80565b805f5b83811015610d10578151610cf78882610c9e565b9750610d0283610cb5565b925050600181019050610ce3565b5085935050505092915050565b5f6020820190508181035f830152610d358184610cc1565b905092915050565b7f4861736820646f6573206e6f74206578697374000000000000000000000000005f82015250565b5f610d716013836108e6565b9150610d7c82610d3d565b602082019050919050565b5f6020820190508181035f830152610d9e81610d65565b9050919050565b7f4e487b71000000000000000000000000000000000000000000000000000000005f52602260045260245ffd5b5f6002820490506001821680610de957607f821691505b602082108103610dfc57610dfb610da5565b5b50919050565b7f4861736820616c726561647920657869737473000000000000000000000000005f82015250565b5f610e366013836108e6565b9150610e4182610e02565b602082019050919050565b5f6020820190508181035f830152610e6381610e2a565b9050919050565b5f819050815f5260205f209050919050565b5f6020601f8301049050919050565b5f82821b905092915050565b5f60088302610ec67fffffffffffffffffffffffffffffffffffffffffffffffffffffffffffffffff82610e8b565b610ed08683610e8b565b95508019841693508086168417925050509392505050565b5f819050919050565b5f610f0b610f06610f01846107f8565b610ee8565b6107f8565b9050919050565b5f819050919050565b610f2483610ef1565b610f38610f3082610f12565b848454610e97565b825550505050565b5f90565b610f4c610f40565b610f57818484610f1b565b505050565b5b81811015610f7a57610f6f5f82610f44565b600181019050610f5d565b5050565b601f821115610fbf57610f9081610e6a565b610f9984610e7c565b81016020851015610fa8578190505b610fbc610fb485610e7c565b830182610f5c565b50505b505050565b5f82821c905092915050565b5f610fdf5f1984600802610fc4565b1980831691505092915050565b5f610ff78383610fd0565b9150826002028217905092915050565b611010826108dc565b67ffffffffffffffff81111561102957611028610a8a565b5b6110338254610dd2565b61103e828285610f7e565b5f60209050601f83116001811461106f575f841561105d578287015190505b6110678582610fec565b8655506110ce565b601f19841661107d86610e6a565b5f5b828110156110a45784890151825560018201915060208501945060208101905061107f565b868310156110c157848901516110bd601f891682610fd0565b8355505b6001600288020188555050505b505050505050565b5f6080820190508181035f8301526110ee818761092e565b90508181036020830152611102818661092e565b90508181036040830152611116818561092e565b90506111256060830184610966565b9594505050505056fea2646970667358221220780cf370177afef28b869530551891f783705f8b7bfd5bdec6d5573e5679d68f64736f6c63430008150033",
  "immutableReferences": {},
  "source": "// SPDX-License-Identifier: MIT\npragma solidity ^0.8.0;\n\ncontract HashStorage {\n    struct HashData {\n        bytes32 hash;\n        string fileName;\n        string fileType;\n        string fileSize;\n        uint256 timestamp;\n        bool exists;\n    }\n\n    mapping(bytes32 => HashData) public hashRecords;\n    bytes32[] public allHashes;\n\n    event HashStored(bytes32 indexed hash, string fileName, string fileType, string fileSize, uint256 timestamp);\n\n    function storeHash(bytes32 _hash, string memory _fileName, string memory _fileType, string memory _fileSize) public {\n        require(!hashRecords[_hash].exists, \"Hash already exists\");\n\n        hashRecords[_hash] = HashData({\n            hash: _hash,\n            fileName: _fileName,\n            fileType: _fileType,\n            fileSize: _fileSize,\n            timestamp: block.timestamp,\n            exists: true\n        });\n\n        allHashes.push(_hash);\n        emit HashStored(_hash, _fileName, _fileType, _fileSize, block.timestamp);\n    }\n\n    function getHashData(bytes32 _hash) public view returns (\n        bytes32, string memory, string memory, string memory, uint256\n    ) {\n        require(hashRecords[_hash].exists, \"Hash does not exist\");\n        HashData memory data = hashRecords[_hash];\n        return (data.hash, data.fileName, data.fileType, data.fileSize, data.timestamp);\n    }\n\n    function getAllHashes() public view returns (bytes32[] memory) {\n        return allHashes;\n    }\n\n    function hashExists(bytes32 _hash) public view returns (bool) {\n        return hashRecords[_hash].exists;\n    }\n}",
  "sourcePath": "/Users/faryzaaina/IBEC 2025 Blockchain/contracts/HashStorage.sol",
  "compiler": {
    "name": "solc",
    "version": "0.8.21+commit.d9974bed.Emscripten.clang"
  },
  "schemaVersion": "3.4.16",
  "updatedAt": "2025-06-04T13:49:27.937Z",
  "devdoc": {
    "kind": "dev",
    "methods": {},
    "version": 1
  },
  "userdoc": {
    "kind": "user",
    "methods": {},
    "version": 1
  }
}